{
  "_format": "hh-sol-artifact-1",
  "contractName": "Chaintext",
  "sourceName": "contracts/Chaintext.sol",
  "abi": [
    {
      "inputs": [
        {
          "internalType": "address",
          "name": "friend_key",
          "type": "address"
        },
        {
          "internalType": "string",
          "name": "name",
          "type": "string"
        }
      ],
      "name": "addFriend",
      "outputs": [],
      "stateMutability": "nonpayable",
      "type": "function"
    },
    {
      "inputs": [
        {
          "internalType": "address",
          "name": "pubkey",
          "type": "address"
        }
      ],
      "name": "checkUserExists",
      "outputs": [
        {
          "internalType": "bool",
          "name": "",
          "type": "bool"
        }
      ],
      "stateMutability": "view",
      "type": "function"
    },
    {
      "inputs": [
        {
          "internalType": "string",
          "name": "name",
          "type": "string"
        }
      ],
      "name": "createAccount",
      "outputs": [],
      "stateMutability": "nonpayable",
      "type": "function"
    },
    {
      "inputs": [],
      "name": "getAllAppUser",
      "outputs": [
        {
          "components": [
            {
              "internalType": "string",
              "name": "name",
              "type": "string"
            },
            {
              "internalType": "address",
              "name": "accountAddress",
              "type": "address"
            }
          ],
          "internalType": "struct Chaintext.AllUserStruct[]",
          "name": "",
          "type": "tuple[]"
        }
      ],
      "stateMutability": "view",
      "type": "function"
    },
    {
      "inputs": [],
      "name": "getMyFriendList",
      "outputs": [
        {
          "components": [
            {
              "internalType": "address",
              "name": "pubkey",
              "type": "address"
            },
            {
              "internalType": "string",
              "name": "name",
              "type": "string"
            }
          ],
          "internalType": "struct Chaintext.friend[]",
          "name": "",
          "type": "tuple[]"
        }
      ],
      "stateMutability": "view",
      "type": "function"
    },
    {
      "inputs": [
        {
          "internalType": "address",
          "name": "pubkey",
          "type": "address"
        }
      ],
      "name": "getUsername",
      "outputs": [
        {
          "internalType": "string",
          "name": "",
          "type": "string"
        }
      ],
      "stateMutability": "view",
      "type": "function"
    },
    {
      "inputs": [
        {
          "internalType": "address",
          "name": "friend_key",
          "type": "address"
        }
      ],
      "name": "readMessage",
      "outputs": [
        {
          "components": [
            {
              "internalType": "address",
              "name": "sender",
              "type": "address"
            },
            {
              "internalType": "uint256",
              "name": "timestamp",
              "type": "uint256"
            },
            {
              "internalType": "string",
              "name": "msg",
              "type": "string"
            }
          ],
          "internalType": "struct Chaintext.message[]",
          "name": "",
          "type": "tuple[]"
        }
      ],
      "stateMutability": "view",
      "type": "function"
    },
    {
      "inputs": [
        {
          "internalType": "address",
          "name": "friend_key",
          "type": "address"
        },
        {
          "internalType": "string",
          "name": "_msg",
          "type": "string"
        }
      ],
      "name": "sendMessage",
      "outputs": [],
      "stateMutability": "nonpayable",
      "type": "function"
    },
    {
      "inputs": [],
      "name": "testFunc",
      "outputs": [
        {
          "internalType": "uint256",
          "name": "",
          "type": "uint256"
        }
      ],
      "stateMutability": "view",
      "type": "function"
    }
  ],
  "bytecode": "0x6080604052600a60005534801561001557600080fd5b506120ed806100256000396000f3fe608060405234801561001057600080fd5b50600436106100935760003560e01c80633b9f708d116100665780633b9f708d14610132578063a24d41de1461014e578063bd0f4d0d1461016c578063ce43c0321461018a578063de6f24bb146101ba57610093565b8063037a417c14610098578063133f50f5146100b6578063255e9c11146100e6578063298daf5b14610116575b600080fd5b6100a06101d6565b6040516100ad9190611181565b60405180910390f35b6100d060048036038101906100cb9190611204565b6101df565b6040516100dd919061124c565b60405180910390f35b61010060048036038101906100fb9190611204565b610239565b60405161010d9190611427565b60405180910390f35b610130600480360381019061012b91906114ae565b6103ac565b005b61014c600480360381019061014791906114fb565b610590565b005b610156610807565b604051610163919061165a565b60405180910390f35b61017461094e565b604051610181919061177b565b60405180910390f35b6101a4600480360381019061019f9190611204565b610ad5565b6040516101b191906117e7565b60405180910390f35b6101d460048036038101906101cf91906114fb565b610bf1565b005b60008054905090565b600080600260008473ffffffffffffffffffffffffffffffffffffffff1673ffffffffffffffffffffffffffffffffffffffff168152602001908152602001600020600001805461022f90611838565b9050119050919050565b606060006102473384610dfe565b905060036000828152602001908152602001600020805480602002602001604051908101604052809291908181526020016000905b828210156103a057838290600052602060002090600302016040518060600160405290816000820160009054906101000a900473ffffffffffffffffffffffffffffffffffffffff1673ffffffffffffffffffffffffffffffffffffffff1673ffffffffffffffffffffffffffffffffffffffff1681526020016001820154815260200160028201805461030f90611838565b80601f016020809104026020016040519081016040528092919081815260200182805461033b90611838565b80156103885780601f1061035d57610100808354040283529160200191610388565b820191906000526020600020905b81548152906001019060200180831161036b57829003601f168201915b5050505050815250508152602001906001019061027c565b50505050915050919050565b600015156103b9336101df565b1515146103fb576040517f08c379a00000000000000000000000000000000000000000000000000000000081526004016103f2906118b5565b60405180910390fd5b60008282905011610441576040517f08c379a000000000000000000000000000000000000000000000000000000000815260040161043890611921565b60405180910390fd5b8181600260003373ffffffffffffffffffffffffffffffffffffffff1673ffffffffffffffffffffffffffffffffffffffff1681526020019081526020016000206000019182610492929190611b27565b506001604051806040016040528084848080601f016020809104026020016040519081016040528093929190818152602001838380828437600081840152601f19601f8201169050808301925050505050505081526020013373ffffffffffffffffffffffffffffffffffffffff16815250908060018154018082558091505060019003906000526020600020906002020160009091909190915060008201518160000190816105429190611bf7565b5060208201518160010160006101000a81548173ffffffffffffffffffffffffffffffffffffffff021916908373ffffffffffffffffffffffffffffffffffffffff16021790555050505050565b610599336101df565b6105d8576040517f08c379a00000000000000000000000000000000000000000000000000000000081526004016105cf90611d15565b60405180910390fd5b6105e1836101df565b610620576040517f08c379a000000000000000000000000000000000000000000000000000000000815260040161061790611d81565b60405180910390fd5b8273ffffffffffffffffffffffffffffffffffffffff163373ffffffffffffffffffffffffffffffffffffffff160361068e576040517f08c379a000000000000000000000000000000000000000000000000000000000815260040161068590611e13565b60405180910390fd5b6000151561069c3385610e96565b1515146106de576040517f08c379a00000000000000000000000000000000000000000000000000000000081526004016106d590611e7f565b60405180910390fd5b61072d338484848080601f016020809104026020016040519081016040528093929190818152602001838380828437600081840152601f19601f82011690508083019250505050505050611068565b6108028333600260003373ffffffffffffffffffffffffffffffffffffffff1673ffffffffffffffffffffffffffffffffffffffff168152602001908152602001600020600001805461077f90611838565b80601f01602080910402602001604051908101604052809291908181526020018280546107ab90611838565b80156107f85780601f106107cd576101008083540402835291602001916107f8565b820191906000526020600020905b8154815290600101906020018083116107db57829003601f168201915b5050505050611068565b505050565b60606001805480602002602001604051908101604052809291908181526020016000905b82821015610945578382906000526020600020906002020160405180604001604052908160008201805461085e90611838565b80601f016020809104026020016040519081016040528092919081815260200182805461088a90611838565b80156108d75780601f106108ac576101008083540402835291602001916108d7565b820191906000526020600020905b8154815290600101906020018083116108ba57829003601f168201915b505050505081526020016001820160009054906101000a900473ffffffffffffffffffffffffffffffffffffffff1673ffffffffffffffffffffffffffffffffffffffff1673ffffffffffffffffffffffffffffffffffffffff16815250508152602001906001019061082b565b50505050905090565b6060600260003373ffffffffffffffffffffffffffffffffffffffff1673ffffffffffffffffffffffffffffffffffffffff168152602001908152602001600020600101805480602002602001604051908101604052809291908181526020016000905b82821015610acc57838290600052602060002090600202016040518060400160405290816000820160009054906101000a900473ffffffffffffffffffffffffffffffffffffffff1673ffffffffffffffffffffffffffffffffffffffff1673ffffffffffffffffffffffffffffffffffffffff168152602001600182018054610a3b90611838565b80601f0160208091040260200160405190810160405280929190818152602001828054610a6790611838565b8015610ab45780601f10610a8957610100808354040283529160200191610ab4565b820191906000526020600020905b815481529060010190602001808311610a9757829003601f168201915b505050505081525050815260200190600101906109b2565b50505050905090565b6060610ae0826101df565b610b1f576040517f08c379a0000000000000000000000000000000000000000000000000000000008152600401610b1690611eeb565b60405180910390fd5b600260008373ffffffffffffffffffffffffffffffffffffffff1673ffffffffffffffffffffffffffffffffffffffff1681526020019081526020016000206000018054610b6c90611838565b80601f0160208091040260200160405190810160405280929190818152602001828054610b9890611838565b8015610be55780601f10610bba57610100808354040283529160200191610be5565b820191906000526020600020905b815481529060010190602001808311610bc857829003601f168201915b50505050509050919050565b610bfa336101df565b610c39576040517f08c379a0000000000000000000000000000000000000000000000000000000008152600401610c3090611d15565b60405180910390fd5b610c42836101df565b610c81576040517f08c379a0000000000000000000000000000000000000000000000000000000008152600401610c7890611eeb565b60405180910390fd5b610c8b3384610e96565b610cca576040517f08c379a0000000000000000000000000000000000000000000000000000000008152600401610cc190611f7d565b60405180910390fd5b6000610cd63385610dfe565b9050600060405180606001604052803373ffffffffffffffffffffffffffffffffffffffff16815260200142815260200185858080601f016020809104026020016040519081016040528093929190818152602001838380828437600081840152601f19601f8201169050808301925050505050505081525090506003600083815260200190815260200160002081908060018154018082558091505060019003906000526020600020906003020160009091909190915060008201518160000160006101000a81548173ffffffffffffffffffffffffffffffffffffffff021916908373ffffffffffffffffffffffffffffffffffffffff160217905550602082015181600101556040820151816002019081610df49190611bf7565b5050505050505050565b60008173ffffffffffffffffffffffffffffffffffffffff168373ffffffffffffffffffffffffffffffffffffffff161015610e64578282604051602001610e47929190611fe5565b604051602081830303815290604052805190602001209050610e90565b8183604051602001610e77929190611fe5565b6040516020818303038152906040528051906020012090505b92915050565b6000600260008373ffffffffffffffffffffffffffffffffffffffff1673ffffffffffffffffffffffffffffffffffffffff16815260200190815260200160002060010180549050600260008573ffffffffffffffffffffffffffffffffffffffff1673ffffffffffffffffffffffffffffffffffffffff168152602001908152602001600020600101805490501115610f37576000839050829350809250505b60005b600260008573ffffffffffffffffffffffffffffffffffffffff1673ffffffffffffffffffffffffffffffffffffffff1681526020019081526020016000206001018054905081101561105c578273ffffffffffffffffffffffffffffffffffffffff16600260008673ffffffffffffffffffffffffffffffffffffffff1673ffffffffffffffffffffffffffffffffffffffff1681526020019081526020016000206001018281548110610ff257610ff1612011565b5b906000526020600020906002020160000160009054906101000a900473ffffffffffffffffffffffffffffffffffffffff1673ffffffffffffffffffffffffffffffffffffffff1603611049576001915050611062565b80806110549061206f565b915050610f3a565b50600090505b92915050565b600060405180604001604052808473ffffffffffffffffffffffffffffffffffffffff168152602001838152509050600260008573ffffffffffffffffffffffffffffffffffffffff1673ffffffffffffffffffffffffffffffffffffffff16815260200190815260200160002060010181908060018154018082558091505060019003906000526020600020906002020160009091909190915060008201518160000160006101000a81548173ffffffffffffffffffffffffffffffffffffffff021916908373ffffffffffffffffffffffffffffffffffffffff160217905550602082015181600101908161115f9190611bf7565b50505050505050565b6000819050919050565b61117b81611168565b82525050565b60006020820190506111966000830184611172565b92915050565b600080fd5b600080fd5b600073ffffffffffffffffffffffffffffffffffffffff82169050919050565b60006111d1826111a6565b9050919050565b6111e1816111c6565b81146111ec57600080fd5b50565b6000813590506111fe816111d8565b92915050565b60006020828403121561121a5761121961119c565b5b6000611228848285016111ef565b91505092915050565b60008115159050919050565b61124681611231565b82525050565b6000602082019050611261600083018461123d565b92915050565b600081519050919050565b600082825260208201905092915050565b6000819050602082019050919050565b61129c816111c6565b82525050565b6112ab81611168565b82525050565b600081519050919050565b600082825260208201905092915050565b60005b838110156112eb5780820151818401526020810190506112d0565b60008484015250505050565b6000601f19601f8301169050919050565b6000611313826112b1565b61131d81856112bc565b935061132d8185602086016112cd565b611336816112f7565b840191505092915050565b60006060830160008301516113596000860182611293565b50602083015161136c60208601826112a2565b50604083015184820360408601526113848282611308565b9150508091505092915050565b600061139d8383611341565b905092915050565b6000602082019050919050565b60006113bd82611267565b6113c78185611272565b9350836020820285016113d985611283565b8060005b8581101561141557848403895281516113f68582611391565b9450611401836113a5565b925060208a019950506001810190506113dd565b50829750879550505050505092915050565b6000602082019050818103600083015261144181846113b2565b905092915050565b600080fd5b600080fd5b600080fd5b60008083601f84011261146e5761146d611449565b5b8235905067ffffffffffffffff81111561148b5761148a61144e565b5b6020830191508360018202830111156114a7576114a6611453565b5b9250929050565b600080602083850312156114c5576114c461119c565b5b600083013567ffffffffffffffff8111156114e3576114e26111a1565b5b6114ef85828601611458565b92509250509250929050565b6000806000604084860312156115145761151361119c565b5b6000611522868287016111ef565b935050602084013567ffffffffffffffff811115611543576115426111a1565b5b61154f86828701611458565b92509250509250925092565b600081519050919050565b600082825260208201905092915050565b6000819050602082019050919050565b600060408301600083015184820360008601526115a48282611308565b91505060208301516115b96020860182611293565b508091505092915050565b60006115d08383611587565b905092915050565b6000602082019050919050565b60006115f08261155b565b6115fa8185611566565b93508360208202850161160c85611577565b8060005b85811015611648578484038952815161162985826115c4565b9450611634836115d8565b925060208a01995050600181019050611610565b50829750879550505050505092915050565b6000602082019050818103600083015261167481846115e5565b905092915050565b600081519050919050565b600082825260208201905092915050565b6000819050602082019050919050565b60006040830160008301516116c06000860182611293565b50602083015184820360208601526116d88282611308565b9150508091505092915050565b60006116f183836116a8565b905092915050565b6000602082019050919050565b60006117118261167c565b61171b8185611687565b93508360208202850161172d85611698565b8060005b85811015611769578484038952815161174a85826116e5565b9450611755836116f9565b925060208a01995050600181019050611731565b50829750879550505050505092915050565b600060208201905081810360008301526117958184611706565b905092915050565b600082825260208201905092915050565b60006117b9826112b1565b6117c3818561179d565b93506117d38185602086016112cd565b6117dc816112f7565b840191505092915050565b6000602082019050818103600083015261180181846117ae565b905092915050565b7f4e487b7100000000000000000000000000000000000000000000000000000000600052602260045260246000fd5b6000600282049050600182168061185057607f821691505b60208210810361186357611862611809565b5b50919050565b7f5573657220616c72656164792065786973747300000000000000000000000000600082015250565b600061189f60138361179d565b91506118aa82611869565b602082019050919050565b600060208201905081810360008301526118ce81611892565b9050919050565b7f557365726e616d652063616e6e6f7420626520656d7074790000000000000000600082015250565b600061190b60188361179d565b9150611916826118d5565b602082019050919050565b6000602082019050818103600083015261193a816118fe565b9050919050565b600082905092915050565b7f4e487b7100000000000000000000000000000000000000000000000000000000600052604160045260246000fd5b60008190508160005260206000209050919050565b60006020601f8301049050919050565b600082821b905092915050565b6000600883026119dd7fffffffffffffffffffffffffffffffffffffffffffffffffffffffffffffffff826119a0565b6119e786836119a0565b95508019841693508086168417925050509392505050565b6000819050919050565b6000611a24611a1f611a1a84611168565b6119ff565b611168565b9050919050565b6000819050919050565b611a3e83611a09565b611a52611a4a82611a2b565b8484546119ad565b825550505050565b600090565b611a67611a5a565b611a72818484611a35565b505050565b5b81811015611a9657611a8b600082611a5f565b600181019050611a78565b5050565b601f821115611adb57611aac8161197b565b611ab584611990565b81016020851015611ac4578190505b611ad8611ad085611990565b830182611a77565b50505b505050565b600082821c905092915050565b6000611afe60001984600802611ae0565b1980831691505092915050565b6000611b178383611aed565b9150826002028217905092915050565b611b318383611941565b67ffffffffffffffff811115611b4a57611b4961194c565b5b611b548254611838565b611b5f828285611a9a565b6000601f831160018114611b8e5760008415611b7c578287013590505b611b868582611b0b565b865550611bee565b601f198416611b9c8661197b565b60005b82811015611bc457848901358255600182019150602085019450602081019050611b9f565b86831015611be15784890135611bdd601f891682611aed565b8355505b6001600288020188555050505b50505050505050565b611c00826112b1565b67ffffffffffffffff811115611c1957611c1861194c565b5b611c238254611838565b611c2e828285611a9a565b600060209050601f831160018114611c615760008415611c4f578287015190505b611c598582611b0b565b865550611cc1565b601f198416611c6f8661197b565b60005b82811015611c9757848901518255600182019150602085019450602081019050611c72565b86831015611cb45784890151611cb0601f891682611aed565b8355505b6001600288020188555050505b505050505050565b7f43726561746520616e206163636f756e74206669727374000000000000000000600082015250565b6000611cff60178361179d565b9150611d0a82611cc9565b602082019050919050565b60006020820190508181036000830152611d2e81611cf2565b9050919050565b7f55736572206973206e6f74207265676973746572656421000000000000000000600082015250565b6000611d6b60178361179d565b9150611d7682611d35565b602082019050919050565b60006020820190508181036000830152611d9a81611d5e565b9050919050565b7f557365722063616e6e6f7420616464207468656d73656c76657320617320667260008201527f69656e6400000000000000000000000000000000000000000000000000000000602082015250565b6000611dfd60248361179d565b9150611e0882611da1565b604082019050919050565b60006020820190508181036000830152611e2c81611df0565b9050919050565b7f416c7265616479206120667269656e6400000000000000000000000000000000600082015250565b6000611e6960108361179d565b9150611e7482611e33565b602082019050919050565b60006020820190508181036000830152611e9881611e5c565b9050919050565b7f55736572206973206e6f74207265676973746572656400000000000000000000600082015250565b6000611ed560168361179d565b9150611ee082611e9f565b602082019050919050565b60006020820190508181036000830152611f0481611ec8565b9050919050565b7f596f7520617265206e6f7420667269656e64207769746820746865206769766560008201527f6e20757365720000000000000000000000000000000000000000000000000000602082015250565b6000611f6760268361179d565b9150611f7282611f0b565b604082019050919050565b60006020820190508181036000830152611f9681611f5a565b9050919050565b60008160601b9050919050565b6000611fb582611f9d565b9050919050565b6000611fc782611faa565b9050919050565b611fdf611fda826111c6565b611fbc565b82525050565b6000611ff18285611fce565b6014820191506120018284611fce565b6014820191508190509392505050565b7f4e487b7100000000000000000000000000000000000000000000000000000000600052603260045260246000fd5b7f4e487b7100000000000000000000000000000000000000000000000000000000600052601160045260246000fd5b600061207a82611168565b91507fffffffffffffffffffffffffffffffffffffffffffffffffffffffffffffffff82036120ac576120ab612040565b5b60018201905091905056fea2646970667358221220191794e765004f710be81afe964b4cc0de2488b4843996126c5465987e2dbf5e64736f6c63430008130033",
  "linkReferences": {},
  "deployedLinkReferences": {}
}